:020000040800F2
:100000003807002045010008650900087F03000843
:1000100031040008E3010008D718000800000000C0
:10002000000000000000000000000000A90E000811
:100030005F02000800000000210A0008BD0F000850
:100040005F0100085F0100085F0100085F01000810
:100050005F0100085F0100085F0100085F01000800
:100060005F0100085F0100085F0100085F010008F0
:100070005F0100085F0100085F0100085F010008E0
:100080005F0100085F0100085F0100085F010008D0
:100090005F0100085F0100085F0100085F010008C0
:1000A0005F0100085F0100085F0100085F010008B0
:1000B0005D1000085F0100085F0100085F01000893
:1000C0005F0100085F0100085F0100085F01000890
:1000D0005F010008211500081516000831160008F8
:1000E0005F0100085F0100085F0100085F01000870
:1000F0005F0100085F0100085F0100085F01000860
:100100005F0100085F0100085F0100085F0100084F
:100110009D100008AD1100085F0100085F01000894
:100120005F0100085F0100085F0100085F0100082F
:10013000DFF80CD000F018F8004800474519000817
:10014000380700200648804706480047FEE7FEE7DC
:10015000FEE7FEE7FEE7FEE7FEE7FEE7FEE7FEE777
:10016000FD0F000831010008064C074D06E0E0686D
:1001700040F0010394E8070098471034AC42F6D3EE
:10018000FFF7DAFFC81C0008E81C000870B58C18DF
:1001900010F8015B15F0070301D110F8013B2A119B
:1001A00006D110F8012B03E010F8016B01F8016B88
:1001B0005B1EF9D12B0705D40023521E0DD401F884
:1001C000013BFAE710F8013BCB1A921C03E013F84D
:1001D000015B01F8015B521EF9D5A142D8D3002082
:1001E00070BD00BFFEE7FCB504460D464FF6FF703C
:1001F000019048F205070020009025E014F8010B5B
:1002000000906946684600F0D9F8BDF804009DF8F2
:10021000001080EA01200190002613E0BDF80400E0
:1002200000F4004030B1BDF8040087EA400080B21D
:10023000019006E0BDF804004FF6FF7101EA4000AE
:100240000190761C082EE9DB2800A5F10105D5D127
:1002500001A901A800F095F8BDF80400FCBD7047A5
:100260002DE9F0410246002500260020002300244D
:10027000002791F803C00CF00F0591F803C00CF0B3
:10028000100CBCF1000F03D091F802C04CEA050538
:1002900091F800C0BCF1000F31D0146800202BE0B1
:1002A0004FF0010C0CFA00F3B1F800C00CEA0306A1
:1002B0009E4220D183004FF00F0C0CFA03F7BC4391
:1002C00005FA03FC4CEA040491F803C0BCF1280FC2
:1002D00006D14FF0010C0CFA00FCC2F814C00AE081
:1002E00091F803C0BCF1480F05D14FF0010C0CFA96
:1002F00000FCC2F810C0401C0828D1D31460B1F82B
:1003000000C0BCF1FF0F34DD546800202EE000F186
:10031000080C4FF0010808FA0CF3B1F800C00CEA21
:1003200003069E4221D183004FF00F0C0CFA03F715
:10033000BC4305FA03FC4CEA040491F803C0BCF189
:10034000280F05D100F1080C08FA0CF8C2F8148047
:1003500091F803C0BCF1480F07D100F1080C4FF031
:10036000010808FA0CF8C2F81080401C0828CED307
:100370005460BDE8F081416170470161704700BF82
:10038000FEE73CB502460023ADF8003000200FE048
:100390000B880124844023404BB1BDF80030C0F1EC
:1003A0000F050124AC4023439BB2ADF80030401C44
:1003B0001028EDDBBDF8003013803CBD38B5024697
:1003C00000238DF8003000200FE00B7801248440DA
:1003D00023404BB19DF80030C0F107050124AC402B
:1003E0002343DBB28DF80030401C0828EDDB9DF87C
:1003F0000030137038BD000008B50121082000F05E
:1004000021FB4FF48070ADF8000010208DF8030040
:1004100003208DF8020069460448FFF721FF4FF4DE
:1004200080710248FFF7A7FF08BD0000000C0140E3
:1004300000BFFEE710B535480068022822D1012030
:10044000324908600821324801F0B8FB052001F06C
:1004500053FA08212F4801F0B1FB052001F04CFAB6
:1004600001202D4908600821294801F02FFB0520B3
:1004700001F042FA0821294801F028FB052001F08B
:100480003BFA3AE00821224801F07AFB00BF2448F9
:10049000008800F040000028F9D0052001F02CFA77
:1004A00008211C4801F06CFB00BF1D48008800F0CB
:1004B00040000028F9D0052001F01EFA012016495D
:1004C00008600821124801F01FFB00BF1548008892
:1004D00000F040000028F9D0052001F00DFA0821B5
:1004E0000E4801F011FB00BF0E48008800F04000EC
:1004F0000028F9D0052001F0FFF908210A4801F091
:1005000021FB052001F0F8F910BD000020000020BB
:10051000D600002029010020A00121428D000020EA
:100520000048004000380140080100202DE9F04358
:1005300087B004460D46200E8DF81800200C8DF86B
:100540001900200A8DF81A00E0B28DF81B00280E61
:100550008DF81400280C8DF81500280A8DF8160067
:10056000E8B28DF817009DF818002B49C8719DF866
:10057000190008729DF81A0048729DF81B008872D5
:100580009DF81400C8729DF8150008739DF81600B8
:1005900048739DF817008873002604E01E48805DAC
:1005A00001A98855761C0F2EF8DB0F2101A8FFF753
:1005B0001AFE074607F0FF084FEA2729164880F879
:1005C0000F8080F81090112101F016FB032001F03C
:1005D00093F91121104801F079FA0A2001F08CF901
:1005E00008210E4801F072FA0A2001F085F908216D
:1005F0000B4801F06BFA00BF0A48008800F0400089
:100600000028F9D0032001F077F90020064908708E
:1006100007B0BDE8F08300007400002085000020D2
:100620008D000020003801404B0100202DE9F043EF
:1006300087B004460D46200E8DF81800200C8DF86A
:100640001900200A8DF81A00E0B28DF81B00280E60
:100650008DF81400280C8DF81500280A8DF8160066
:10066000E8B28DF817009DF818002649C8719DF86A
:10067000190008729DF81A0048729DF81B008872D4
:100680009DF81400C8729DF8150008739DF81600B7
:1006900048739DF817008873002604E01948805DB0
:1006A00001A98855761C0F2EF8DB0F2101A8FFF752
:1006B0009AFD074607F0FF084FEA2729114880F8FE
:1006C0000F8080F81090112101F078FA0A2001F0D3
:1006D00013F908210C4801F071FA0A2001F00CF915
:1006E00008210A4801F06AFA00BF0948008800F0B2
:1006F00040000028F9D0032001F0FEF807B0BDE863
:10070000F0830000100100202101002029010020B9
:100710000048004010B524E001203949086001F08C
:10072000EBF85521374801F0D2F800BF3548008872
:1007300000F040000028F9D0002031490860052071
:1007400001F0DAF830480068012800D10AE02F48AB
:100750000068401C2D49086008460068322800D116
:1007600000E0D9E700BF28480068012846D10020F2
:10077000254908602648407B00062549897B40EAD8
:1007800001402349C97B40EA01202149097C0843F3
:10079000204908602048214908601E48006809680F
:1007A000401A00F0004078B11C48006819490968F7
:1007B000401A1B4908600846006846F2A8114843E1
:1007C000400C1849086010E0124800681349096895
:1007D000401A134908600846006846F2A8114843C9
:1007E0000021A1EB50400F490860052001F084F87A
:1007F0004FF446710B48006800F016F810BD000079
:10080000B0012142004C0040700000206001002037
:10081000640100204C010020968B01005001002053
:1008200054010020580100202DE9F04389B006460C
:100830000F46300E8DF82000300C8DF82100300A64
:100840008DF82200F0B28DF82300380E8DF81C00D0
:10085000380C8DF81D00380A8DF81E00F8B28DF89E
:100860001F009DF820003949C8719DF821000872C9
:100870009DF8220048729DF8230088729DF81C00A4
:100880003349C8719DF81D0008729DF81E0048721A
:100890009DF81F008872002404E02C48005D04A924
:1008A0000855641C0B2CF8DB0B2104A8FFF79BFCFC
:1008B000054605F0FF084FEA2529244880F80B80FB
:1008C00080F80C90002404E02148005D01A908553F
:1008D000641C0B2CF8DB0B2101A8FFF784FC0546F8
:1008E00005F0FF084FEA2529194880F80B8080F8A9
:1008F0000C900D21154801F025F90A2000F0FCFFAD
:100900000D21134801F01EF90A2000F0F5FF08211F
:10091000104801F017F90A2000F0EEFF08210E48F8
:1009200001F010F900BF0D48008800F040000028D9
:10093000F9D0032000F0E0FF0821094801F002F996
:100940000A2000F0D9FF09B0BDE8F083DE000020E6
:10095000EB000020F80000200001002000440040CF
:10096000080100207047000070B5002100230F220D
:10097000C47804B3154C246804F4E064C4F5E0645E
:10098000210AC1F10403CA40447804FA03F18478CF
:100990001440214309010E4C0678A155047804F057
:1009A0001F050124AC4005786D11AD0005F1E0256F
:1009B000C5F8004109E0047804F01F050124AC40AB
:1009C000044D0678761145F8264070BD0CED00E028
:1009D00000E400E080E100E002490143024A1160C6
:1009E000704700000000FA050CED00E008B5012199
:1009F000102000F027F80120ADF8000010208DF83D
:100A0000030003208DF8020069460448FFF728FC24
:100A100001210248FFF7AFFC08BD000000100140B3
:100A20007047000029B1064AD2690243044BDA61DB
:100A300004E0034AD2698243014BDA617047000047
:100A40000010024029B1064A92690243044B9A61A0
:100A500004E0034A92698243014B9A6170470000A7
:100A60000010024030B500210022002400232D4D4B
:100A70006D6805F00C0121B1042905D0082923D1A6
:100A800005E0294D056022E0274D05601FE0254D5A
:100A90006D6805F47012234D6D6805F480340225ED
:100AA00005EB92421CB9214D554305600BE01D4DED
:100AB0006D6805F400351DB11C4D5543056002E01D
:100AC000194D5543056002E0174D056000BF00BF9A
:100AD000144D6D6805F0F0010909154D6B5C056852
:100AE000DD4045600F4D6D6805F4E061090A104D69
:100AF0006B5C4568DD4085600A4D6D6805F46051AA
:100B0000C90A0B4D6B5C4568DD40C560054D6D68DD
:100B100005F44041890B074D6B5CC568B5FBF3F5E7
:100B2000056130BD0010024000127A0000093D004E
:100B3000010000201100002010B586B004460121FC
:100B40000420FFF77FFF01218803FFF77BFF01945B
:100B50000020ADF80800ADF80A00ADF80C00ADF8C3
:100B600010000C20ADF80E0001A9274800F03EFE51
:100B70000121254800F0DFFD4021234800F0D2FD8F
:100B80004FF40070ADF8140018208DF81700032002
:100B90008DF8160005A91D48FFF762FB4FF4806031
:100BA000ADF8140004208DF8170003208DF816000E
:100BB00005A91648FFF754FB4FF48070ADF81400F8
:100BC00010208DF8170003208DF8160005A90F4896
:100BD000FFF746FB012240F225510B4800F0E1FDF2
:100BE00025208DF8000003208DF8010002208DF8EB
:100BF000020001208DF803006846FFF7B5FE0120D2
:100C00000349086006B010BD0038014000080140EB
:100C1000A001214210B586B0044601210420FFF74F
:100C200011FF01214804FFF7FDFE0420ADF8140078
:100C300018208DF8170003208DF8160005A9284804
:100C4000FFF70EFB0820ADF8140004208DF8170004
:100C500003208DF8160005A92148FFF701FB0220AB
:100C6000ADF8140010208DF8170003208DF8160041
:100C700005A91B48FFF7F4FA01940020ADF808001D
:100C8000ADF80A00ADF80C00ADF810000C20ADF87E
:100C90000E0001A9134800F0A9FD0121114800F040
:100CA0004AFD40210F4800F03DFD012240F2255150
:100CB0000C4800F076FD26208DF8000003208DF80A
:100CC000010002208DF8020001208DF80300684623
:100CD000FFF74AFE00200449086006B010BD00007E
:100CE00000080140004400408401214210B586B054
:100CF000044601210820FFF7A5FE01218804FFF723
:100D000091FE01940020ADF80800ADF80A00ADF89E
:100D10000C00ADF810000C20ADF80E0001A927481A
:100D200000F064FD0121254800F005FD4021234825
:100D300000F0F8FC4FF48060ADF8140018208DF836
:100D4000170003208DF8160005A91D48FFF788FA43
:100D50004FF40060ADF8140004208DF81700032054
:100D60008DF8160005A91648FFF77AFA0220ADF8AB
:100D7000140010208DF8170003208DF8160005A927
:100D80000F48FFF76DFA012240F225510B4800F0A1
:100D900008FD27208DF8000003208DF801000220B7
:100DA0008DF8020001208DF803006846FFF7DCFD96
:100DB00001200449086006B010BD00000048004052
:100DC000000C01408481214210B586B00446012107
:100DD0001420FFF737FE0121C804FFF723FE01941A
:100DE0000020ADF80800ADF80A00ADF80C00ADF831
:100DF00010000C20ADF80E0001A9274800F0F6FC09
:100E00000121254800F097FC4021234800F08AFC8E
:100E10004FF48060ADF8140018208DF817000320FF
:100E20008DF8160005A91D48FFF71AFA4FF4006067
:100E3000ADF8140004208DF8170003208DF816007B
:100E400005A91648FFF70CFA4FF48050ADF81400CE
:100E500010208DF8170003208DF8160005A9104802
:100E6000FFF7FEF9012240F225510B4800F099FCF2
:100E700034208DF8000003208DF8010002208DF849
:100E8000020001208DF803006846FFF76DFD012088
:100E90000449086006B010BD004C0040001001403D
:100EA00000080140B0012142704710B500F002F87F
:100EB00010BD00000CB50020019000903348006880
:100EC00040F480303149086000BF3048006800F4C9
:100ED000003000900198401C0190009818B90198CA
:100EE000B0F5A06FF1D12948006800F4003010B1CE
:100EF0000120009001E0002000900098012843D1DB
:100F00002348006840F01000214908600846006846
:100F100020F0030008600846006840F00200086006
:100F20001A484068194948600846406848600846C1
:100F3000406840F4806048600846406820F47C10B7
:100F400048600846406840F4E81048600846006879
:100F500040F08070086000BF0C48006800F000702E
:100F60000028F9D00948406820F00300074948608C
:100F70000846406840F00200486000BF03484068EF
:100F800000F00C000828F9D10CBD00000010024050
:100F900000200240042808D14FF0E021096941F007
:100FA00004014FF0E022116107E04FF0E0210969F0
:100FB00021F004014FF0E0221161704770470000FA
:100FC00010B504466FF00400FFF7E4FFE11704EBEF
:100FD0005171C1F3C701074A11701046007800EB48
:100FE0004001C1EBC0104FF6FF7101EAC000024999
:100FF000088010BD160000201800002010B513480E
:10100000006840F001001149086008464068104936
:1010100008400E494860084600680E4908400B49E0
:1010200008600846006820F4802008600846406890
:1010300020F4FE0048604FF41F008860FFF735FF82
:101040004FF000600449086010BD0000001002402D
:101050000000FFF8FFFFF6FE08ED00E010B50121EB
:10106000880700F009F818B10121880700F001F89D
:1010700010BDCA430282704730B5024600200023EB
:101080000024158A05EA0103958905EA010413B1D4
:101090000CB1012000E0002030BD000070B500253B
:1010A00036480068401C3549086040F225513448F4
:1010B00000F04DFB00285CD0314800F003FC3149C2
:1010C000087031480068401C2F4908602F480068AC
:1010D00005282FD12B4800782D492C4A12688854B6
:1010E0002C480068401C2B490860002404E0284874
:1010F000005D284485B2641C052CF8DBE8B2244965
:10110000497988420ED100202349487320488078CD
:1011100088731F48C078C8731D480079087401207F
:101120001E490860002500201849086001201C495C
:10113000086014E0134800781549144A126888546E
:1011400012480068401C1149086016480068401C9D
:101150001449086014480068401C1349086011488D
:101160000068092805D101200D49086000200D49BB
:1011700008604021024800F0D5FA70BD5C000020F4
:10118000004C00406C000020600000205400002053
:10119000D0020020640000206401002070000020C4
:1011A000B0012142580000206800002010B540F234
:1011B0002551C94800F0CBFA00280FD0C64800F0EE
:1011C00081FBC4B2AB2C0AD1C4480078022806D1F6
:1011D0000120C24908700020C14908707BE1BF4866
:1011E00000780128FAD1BA2C7ED10220BB490870C0
:1011F0000621BC4800F000FDBA48007880F0CC0021
:1012000050BBB848407880F0CC0028BBB548807807
:1012100080F0CC0000BBB348C07880F0CC00D8B9D7
:10122000B048007980F0CC00B0B9AE48407980F089
:10123000CC0088B90220AC4908600121AB48FFF717
:101240009AF81E2000F058FBFFF7F4F8FFF762FA57
:101250001E2000F051FB3EE1A2480078A44908702E
:10126000A048407800F0800050B99E4840780021A6
:1012700041EA00209B49897808439D49486009E07C
:10128000984840789B4941EA00209649897808436C
:10129000974948609348C07800F0800050B9914861
:1012A000C078002141EA00208E490979084390491D
:1012B000886009E08B48C0788E4941EA002089495E
:1012C000097908438A498860864840798A490870C4
:1012D0008448807900F0800060B9824880790021DC
:1012E00041EA00207F4900E0ECE0C97908438249E7
:1012F000486009E07B4880797E4941EA00207949CD
:10130000C97908437C4948607648007A00F080003B
:1013100050B97448007A002141EA00207149497AA5
:1013200008437549886009E06E48007A714941EACE
:1013300000206C49497A08436F4988606948807A7F
:101340006E4908706748C07A00F0800050B965485F
:10135000C07A002141EA00206249097B08436749BD
:10136000486009E05F48C07A624941EA00205D496F
:10137000097B0843614948605A48407B00F080007F
:1013800050B95848407B002141EA00205549897BEB
:1013900008435A49886009E05248407B554941EA70
:1013A00000205049897B0843544988605448407B59
:1013B00000065349897B40EA01405149C97B40EA14
:1013C00001204F49097C08434E4908604E484F4967
:1013D00008604F484F4908604748406800F00040A7
:1013E00060B34848006849490968401A102806D384
:1013F0004648006843490968401A102803D2002073
:101400003D49486044E03F48006840490968401A47
:10141000414908600846006846F2A8114843002187
:10142000A1EB50403D490860334840680968884254
:101430002ED23A4800683049486029E035480068B3
:1014400030490968401A102806D32E4800683149EF
:101450000968401A102803D200202749486017E085
:101460002C48006827490968401A2B49086008463B
:10147000006846F2A8114843400C284908601E48FD
:1014800040680968884203D9244800681A494860BE
:10149000174A91685068FFF749F8174A91685068F1
:1014A000FFF7C2F91548406818B101210F48FEF74F
:1014B00062FF1E2000F020FA104A91685068FFF782
:1014C000B5F808E00748064909784454044800780C
:1014D000401C0349087010BD005000401C00002053
:1014E0001D0000208001002020000020001001408D
:1014F000E40100200000FFFFF0010020FC010020BB
:101500006401002024000020582101002800002050
:10151000FCA401002C00002030000020340000203A
:101520002DE9FC4140F22551324800F010F9002825
:101530005AD0304800F0C6F9C6B22F4800780128CA
:1015400052D12E480078082836D100202A49087048
:101550002B482A4909784654002404E02848005DB5
:101560000DF80400641C072CF8DB07216846FEF721
:101570003AFE0546EFB24FEA25282148C079B84225
:1015800013D11F48007A40450FD11D48C0781D492E
:1015900048711B480079887119484079C87118480A
:1015A00080790872012018490860002013490870EA
:1015B0000120164908600DE0114810490978465489
:1015C0000E480078401C0D49087011480068401C06
:1015D0000F4908600E480068092805D101200B4911
:1015E000086000200A4908604021024800F09AF88B
:1015F000BDE8FC810038014039000020380000209F
:1016000008020020640100203C000020A0012142CB
:101610004000002010B540F22551044800F097F832
:101620004021024800F07EF810BD00000044004058
:101630002DE9FC4140F22551324800F088F800289D
:101640005AD0304800F03EF9C6B22F480078012841
:1016500052D12E480078082836D100202A49087037
:101660002B482A4909784654002404E02848005DA4
:101670000DF80400641C072CF8DB07216846FEF710
:10168000B2FD0546EFB24FEA25282148C079B8429D
:1016900013D11F48007A40450FD11D48C0781D491D
:1016A00048751B480079887519484079C8751848ED
:1016B00080790876012018490860002013490870D5
:1016C0000120164908600DE0114810490978465478
:1016D0000E480078401C0D49087011480068401CF5
:1016E0000F4908600E480068092805D101200B4900
:1016F000086000200A4908604021024800F012F802
:10170000BDE8FC8100480040440000204500002066
:101710006C020020640100204800002084812142E6
:101720004C00002001F40072B2F5007F00D100BF30
:10173000CA430280704721B1828942F400528281FB
:1017400004E082894DF6FF731A408281704770B5BC
:101750000246002400230025002040F66A16B1420C
:1017600000D100BFC1F3421501F01F03012606FAA4
:1017700003F3012D02D19689334006E0022D02D1F8
:10178000168A334001E0968A33400C12012606FA8D
:1017900004F41688344013B10CB1012000E000209D
:1017A00070BDF0B50346002400260025002040F659
:1017B0006A17B94200D100BF1846C1F3421401F0C4
:1017C0001F06012707FA06F5012C01D10C3004E0B1
:1017D000022C01D1103000E014301AB107682F43F9
:1017E000076002E00768AF430760F0BD2DE9F047EE
:1017F00086B005460E460024A24600BFA14600273B
:10180000B08900B100BF2F462C8A4CF6FF7004400F
:10181000F08804432C82AC894EF6F3100440B08863
:1018200031890843718908430443AC81AC8A4FF67F
:10183000FF400440B0890443AC8201A8FFF712F9CD
:101840001F48874202D1DDF810A001E0DDF80CA0AE
:10185000A88900F4004040B10AEBCA0000EB0A106E
:1018600031684900B0FBF1F807E00AEBCA0000EB71
:101870000A1031688900B0FBF1F86420B8FBF0F081
:1018800004012009642101FB1089A88900F40040AB
:1018900040B1322000EBC900B0FBF1F000F00700CE
:1018A000044308E0322000EB09106421B0FBF1F0A2
:1018B00000F00F0004432C8106B0BDE8F087000063
:1018C0000038014001468888C0F308007047C1F322
:1018D00008028280704700BFFEE702E008C8121FBE
:1018E00008C1002AFAD170477047002001E001C109
:1018F000121F002AFBD170470146114A12884A4341
:101900004FF0E0235A6100229A611A46126942F0B0
:1019100001021A6100BF4FF0E022106900F00102DD
:101920001AB100F48032002AF5D04FF0E02212699B
:1019300022F001024FF0E0231A6100229A61704701
:1019400018000020AA2053490870FF204870CC20BE
:101950008870DD20C87001200871FF204872CC20FB
:101960008872DD20C87202200873FF204874CC20E2
:101970008874DD20C87403200875BB204876482091
:10198000FFF71EFB4FF4A060FFF726F8FEF734FDCB
:10199000FFF72CF84FF4E13000F042F94FF4E1305A
:1019A000FFF7CAF84FF4E130FFF734F94FF4E130B4
:1019B000FFF79CF94FF46140FFF706FA4FF47A7095
:1019C000FFF79AFF4FF47A70FFF796FFFEF732FDAC
:1019D000FEF7A0FE01213048FEF7CFFC58E055206D
:1019E0002E49087001202E490860FFF785FF2B481B
:1019F00001782C48FFF76BFF00BF2A48008800F0F1
:101A000040000028F9D00020254908600520FFF794
:101A100073FF0821244800F059F801202349087079
:101A200000202349C1F8A0010520FFF765FF082128
:101A3000204800F0C3F801201F49087000201F490A
:101A400008600520FFF758FF0520FFF755FF1C48E9
:101A50000068012812D11B48006801280ED11A48DD
:101A6000006801280AD1002015490860164908605D
:101A7000144908601A21074800F0BEF80F481C30CE
:101A8000006808B9012000E000200C491C31086002
:101A9000A5E70000640100200010014000000020C4
:101AA000B0012142004C0040A50000203900002078
:101AB0000000214243010020440000208481214293
:101AC0003C000020480000207000002070B5054652
:101AD0000E4601200A490860FFF70EFF00240BE0C4
:101AE000285D0849088000BF0648001F008800F0F4
:101AF00040000028F8D0641CB442F1DB70BD000047
:101B0000A00121420438014070B505460E4601206F
:101B10000A490860FFF7F0FE00240BE000BF084808
:101B2000008800F040000028F9D0285D0449091D14
:101B30000880641CB442F1DB70BD0000A0012142AA
:101B40000038014070B505460E4601200A4908607C
:101B5000FFF7D2FE00240BE000BF0848008800F029
:101B600040000028F9D0285D0449091D0880641C44
:101B7000B442F1DB70BD000084012142004400400A
:101B800070B505460E4601200A490860FFF7B4FE0D
:101B900000240BE000BF0848008800F04000002847
:101BA000F9D0285D0449091D0880641CB442F1DBAA
:101BB00070BD0000848121420048004070B5054698
:101BC0000E4601200A490860FFF796FE00240BE04C
:101BD000285D0849088000BF0648001F008800F003
:101BE00040000028F8D0641CB442F1DB70BD000056
:101BF000848121420448004010B5024600200AE0DA
:101C0000135C064CA38000BF044B1B8803F0400309
:101C1000002BF9D0401C8842F2DB10BD0050004080
:101C200010B586B0044601210805FEF7FBFE012130
:101C30003020FEF707FF4FF48050ADF8140003206A
:101C40008DF8160018208DF8170005A91B48FEF71F
:101C500007FB0420ADF814008DF8170005A91848FB
:101C6000FEF7FEFA35208DF8000003208DF8010004
:101C70008DF8020001208DF803006846FEF774FE1F
:101C800001940020ADF80800ADF80A00ADF80C0092
:101C9000ADF810000C20ADF80E0001A90948FFF7BF
:101CA000A5FD012240F225510648FFF77AFD0121EA
:101CB0000448FFF740FD06B010BD000000100140D1
:101CC0000014014000500040E81C00080000002003
:101CD000640100008C010008701D000864010020F0
:101CE000D4050000EA180008512D01020304047015
:101CF0000906070809020406082A021B0118991997
:101D0000A924091730A924141018026A046629119D
:101D10001206127D3C08181408112B19D2081280E3
:101D20002B7812081240152812010312CC3C020431
:101D300034103C11E81E203B11B80839300913510A
:101D4000180810181E011004023969779A050D123F
:101D5000062E1E2101305C083D200131CC08110BFC
:101D60001FF00C9C391129957909699E0119000011
:0400000508000131BD
:00000001FF
